:100000000C9466000C9487000C9487000C94870075
:100010000C9487000C9487000C9487000C94870044
:100020000C9487000C9487000C9487000C94870034
:100030000C9487000C9487000C9487000C94870024
:100040000C9487000C9487000C9487000C94870014
:100050000C9487000C9487000C9487000C94870004
:100060000C9487000C944A0B0C9487000C94870026
:100070000C9487000C9487000C9487000C948700E4
:100080000C9487000C9487000C9487000C948700D4
:100090000C94740E0C9487000C9487000C948700C9
:1000A0000C9487000C9487000C9487000C948700B4
:1000B0000C9487000C9487000C9487000C948700A4
:1000C0000C9487000C9487000C94870011241FBEA9
:1000D000CFEFD1E2DEBFCDBF00E00CBF13E0A0E068
:1000E000B2E0E6E2FBE200E00BBF02C007900D9237
:1000F000AA30B107D9F716E0AAE0B3E001C01D921B
:10010000AC30B107E1F70E9489000C9491150C9472
:100110000000DF93CF930F920F92CDB7DEB7E7E2E7
:10012000F0E08FE78083E8E2F0E08EE78083ABE2E7
:10013000B0E0EBE2F0E080818F778C93ABE2B0E04F
:10014000EBE2F0E080818F7D8C93ABE2B0E0EBE2FC
:10015000F0E0808180648C9380E090E00E94960BB8
:1001600078940E94090C81309105D9F70E940A0DFC
:100170009A83898389819A8180719070009741F078
:10018000A8E2B0E0E8E2F0E080818F7E8C9307C0C7
:10019000A8E2B0E0E8E2F0E0808180618C938981A0
:1001A0009A8180729070009741F0A8E2B0E0E8E296
:1001B000F0E080818F7D8C9307C0A8E2B0E0E8E298
:1001C000F0E0808180628C9389819A818074907044
:1001D000009741F0A8E2B0E0E8E2F0E080818F7B98
:1001E0008C93BFCFA8E2B0E0E8E2F0E080818064C9
:1001F0008C93B7CFDF93CF93CDB7DEB7E1E2F0E0DA
:100200008CEF8083E2E2F0E08CEF8083EAE7F0E0BD
:1002100086E08083CF91DF910895DF93CF93CDB7B0
:10022000DEB76C970FB6F894DEBF0FBECDBF9A8FC6
:10023000898FEAE7F0E080E88083ECE7F0E0898DE1
:100240008083898D9A8D9C8F8B8F8B8D9C8D833035
:10025000910581F18B8D9C8D843091055CF48B8DA3
:100260009C8D81309105B1F08B8D9C8D82309105F4
:10027000C9F03FC08B8D9C8D8530910559F18B8DD8
:100280009C8D85309105F4F08B8D9C8D8630910589
:1002900049F12FC0A2E2B0E0E2E2F0E080818F7786
:1002A0008C9327C0A2E2B0E0E2E2F0E080818F7B95
:1002B0008C931FC0A2E2B0E0E2E2F0E080818F7D8B
:1002C0008C9317C0A2E2B0E0E2E2F0E080818F7E82
:1002D0008C930FC0A2E2B0E0E2E2F0E08081877F81
:1002E0008C9307C0A2E2B0E0E2E2F0E080818B7F75
:1002F0008C9380E090E0A0E4B1E48D8B9E8BAF8B7B
:10030000B88F6D897E898F89988D2BEA3AEA4AEAFF
:100310005EE30E947D10DC01CB01898B9A8BAB8B55
:10032000BC8B69897A898B899C8920E030E040E820
:100330005FE30E94831288231CF481E0888B91C0C4
:1003400069897A898B899C8920E030E04FE753E402
:100350000E94231218160CF07BC06D897E898F894C
:10036000988D20E030E04AE754E40E947711DC01E8
:10037000CB018C879D87AE87BF876C857D858E85F9
:100380009F8520E030E04AE753E40E947D10DC01C5
:10039000CB0188879987AA87BB87688579858A85F5
:1003A0009B8520E030E040E85FE30E9483128823D1
:1003B0002CF481E090E09F838E833FC0688579852F
:1003C0008A859B8520E03FEF4FE757E40E94231288
:1003D00018164CF56C857D858E859F8520E030E074
:1003E00040E251E40E947D10DC01CB01BC01CD0153
:1003F0000E94A70EDC01CB019F838E830FC089E191
:1004000090E09D838C838C819D810197F1F79D8382
:100410008C838E819F8101979F838E838E819F81A4
:10042000009769F724C0688579858A859B850E9435
:10043000A70EDC01CB019F838E838E819F819B83DE
:100440008A838A819B810197F1F79B838A830FC0FE
:1004500069897A898B899C890E94A70EDC01CB016E
:10046000888B8889898389818A95F1F78983AAE7AE
:10047000B0E0EAE7F0E0808180618C93AAE7B0E029
:10048000EAE7F0E0808180648C93EAE7F0E0808125
:10049000882F90E0807190700097B9F3E2E2F0E06D
:1004A0008CEF8083EAE7F0E01082E8E7F0E08081FB
:1004B00091816C960FB6F894DEBF0FBECDBFCF9181
:1004C000DF910895DF93CF93CDB7DEB7E0E3F0E09F
:1004D0001082CF91DF910895DF93CF9300D000D0A9
:1004E000CDB7DEB79E838D83E1E3F0E08FEF8083AD
:1004F00081E090E09A83898389819A810D8002C08E
:10050000880F991F0A94E2F79A838983EFE2F0E05B
:100510008081282F30E089819A818223932300975C
:1005200029F081E090E09C838B8302C01C821B82B7
:10053000E1E3F0E010828B819C8126960FB6F8945F
:10054000DEBF0FBECDBFCF91DF910895DF93CF9374
:1005500000D00F92CDB7DEB79C838B838B819C81BB
:100560009C01220F331FC901880F991F880F991F03
:10057000820F931F9A83898329813A8186E090E0D4
:1005800060E270E0A9010E941A080F900F900F908E
:100590000F90CF91DF910895DF93CF9300D00F920A
:1005A000CDB7DEB79C838B838B819C819C01220F0E
:1005B000331FC901880F991F880F991F820F931F3E
:1005C00080509C4F9A83898329813A818AE090E008
:1005D00060E270E0A9010E941A080F900F900F903E
:1005E0000F90CF91DF910895DF93CF9300D00F92BA
:1005F000CDB7DEB79C838B838B819C819C01220FBE
:10060000331FC901880F991F880F991F820F931FED
:1006100080509C4F9A83898329813A8186E090E0BB
:1006200060E270E0A9010E941A080F900F900F90ED
:100630000F90CF91DF910895DF93CF9300D00F9269
:10064000CDB7DEB79C838B838B819C819C01220F6D
:10065000331FC901880F991F880F991F820F931F9D
:100660009A83898329813A818AE090E060E270E090
:10067000A9010E941A080F900F900F900F90CF9130
:10068000DF910895DF93CF93CDB7DEB786E090E09A
:1006900060E270E040E050E00E941A08CF91DF91E4
:1006A0000895DF93CF93CDB7DEB78AE090E060E2A4
:1006B00070E040E050E00E941A08CF91DF91089569
:1006C000DF93CF9300D000D0CDB7DEB79C838B8370
:1006D0007E836D831A8219822BC08D819E819C013D
:1006E000220F331FC901880F991F880F991F280FE8
:1006F000391F8AE090E060E270E0A9010E941A08C8
:100700008D819E819C01220F331FC901880F991F83
:10071000880F991F280F391F86E090E060E270E093
:10072000A9010E941A0889819A8101969A83898376
:1007300029813A818B819C812817390774F226968A
:100740000FB6F894DEBF0FBECDBFCF91DF910895F5
:10075000DF93CF9300D000D0CDB7DEB79C838B83DF
:100760007E836D831A82198227C08D819E819C01B0
:10077000220F331FC901880F991F880F991F820FFD
:10078000931F80509C4F9E838D832D813E818AE0F4
:1007900090E060E270E0A9010E941A082D813E817C
:1007A00086E090E060E270E0A9010E941A08898169
:1007B0009A8101969A83898329813A818B819C81D0
:1007C0002817390794F226960FB6F894DEBF0FBEAD
:1007D000CDBFCF91DF910895DF93CF93CDB7DEB733
:1007E0002A970FB6F894DEBF0FBECDBF9E838D83D0
:1007F00078876F838F8198850196AA2797FDA095AA
:10080000BA2FBC01CD010E94B3129B01AC0160E084
:1008100074E284EF99E40E947711DC01CB018983B3
:100820009A83AB83BC838D819E8129813A814B81E0
:100830005C81BA01A9010E944F08009719F41A8639
:1008400019860EC081E090E090930102809300022F
:100850001092F3031092F20381E090E09A87898767
:1008600089859A852A960FB6F894DEBF0FBECDBF54
:10087000CF91DF910895DF93CF93CDB7DEB70E947C
:10088000E408CF91DF910895DF93CF9300D00F92CA
:10089000CDB7DEB719828091F2039091F3038130D6
:1008A000910509F4AAC081E090E09093F30380934E
:1008B000F20380910D03893958F084E090E0909321
:1008C0000102809300021092F3031092F20395C08C
:1008D00080910E03813019F180910E038230F9F07E
:1008E00080910E038330D9F080910E038430B9F0EB
:1008F00080910E03853099F080910E03863079F057
:1009000080910E03833859F084E090E090930102C7
:10091000809300021092F3031092F2036EC08FEFE7
:1009200080930A038FEF80930B031C820EC08C818F
:10093000882F90E00296FC01E65FFC4F9081898150
:10094000890F89838C818F5F8C838C81282F30E085
:1009500080910D03882F90E00196281739073CF30A
:1009600080910D03882F90E09C012D5F3F4F89817E
:100970008095F901E65FFC4F8083809100029091A1
:1009800001028630910539F08091000290910102B8
:100990008730910511F40E94EB0880910D038C5F64
:1009A0008B838B81282F30E08AE093E0B9010E948D
:1009B000F6088A839B818A81981759F082E090E03B
:1009C00090930102809300021092F3031092F203BD
:1009D00014C080910E03823041F480911003882F5F
:1009E00090E006960E94AF0904C086E090E00E9465
:1009F000AF0910920102109200020F900F900F9019
:100A00000F90CF91DF910895DF93CF9300D00F9295
:100A1000CDB7DEB719828091F2039091F30300976E
:100A200009F453C180910C038E3F59F481E090E0AA
:100A300090930102809300021092F3031092F2034C
:100A400044C18091000290910102009729F4109214
:100A5000F10386E08093F0038091F103882F90E00A
:100A6000AC0146555C4F8091F003282F30E0809117
:100A7000F103882F90E0281B390BCA01B9010E94AD
:100A80005C098A839091F1038A81890F8093F10335
:100A90009091F1038091F0039817D8F40E94CD094A
:100AA00081309105B1F48091F103882339F486E017
:100AB00090E0909301028093000206C087E090E0EE
:100AC00090930102809300021092F3031092F203BC
:100AD000FCC01C822CC08C81882F90E0FC01E65564
:100AE000FC4F80818F3F51F48C81882F90E00196DC
:100AF000FC01E655FC4F80818F3F21F18C81282F2E
:100B000030E08091F103882F90E002972817390791
:100B100059F48091F103882F90E00197FC01E6558C
:100B2000FC4F80818F3F71F08C818F5F8C838C8133
:100B3000282F30E08091F103882F90E0019728174B
:100B400039074CF28C81882379F11B8216C08B8186
:100B5000482F50E08B81282F30E08C81882F90E047
:100B6000820F931FFC01E655FC4F8081FA01E65588
:100B7000FC4F80838B818F5F8B838B81482F50E06C
:100B80008091F103282F30E08C81882F90E0B9010B
:100B9000681B790BCB0148175907CCF28091F10300
:100BA0009C81891B8093F1039091F1038091F00364
:100BB000981738F485E090E090930102809300024A
:100BC00084C090910C038091AC03981759F087E092
:100BD00090E090930102809300021092F303109230
:100BE000F20373C08091AD038C5F8093F00390910A
:100BF000F1038091F003981748F58091F103882F55
:100C000090E0AC0146555C4F8091F003282F30E016
:100C10008091F103882F90E0281B390BCA01B9019C
:100C20000E945C098A839091F1038A81890F8093E5
:100C3000F1039091F1038091F003981738F485E067
:100C400090E090930102809300023FC01C820EC08E
:100C50008C81882F90E00296FC01E655FC4F908134
:100C60008981890F89838C818F5F8C838C81282F68
:100C700030E08091AD03882F90E001962817390766
:100C80003CF38981809589838091AD03882F90E022
:100C90000396FC01E655FC4F90818981981759F025
:100CA00087E090E090930102809300021092F3039A
:100CB0001092F2030AC081E090E0909301028093C9
:100CC00000021092F3031092F2030F900F900F9016
:100CD0000F90CF91DF910895DF93CF93CDB7DEB71B
:100CE0000E9444048091000290910102009749F40F
:100CF0000E940405809100029091010285309105C7
:100D0000B9F3CF91DF910895DF93CF93CDB7DEB7DD
:100D10008091000290910102CF91DF910895DF93BD
:100D2000CF930F920F92CDB7DEB79A8389838981D3
:100D300080930C030F900F90CF91DF910895DF9374
:100D4000CF930F920F92CDB7DEB79A8389838981B3
:100D500080930E030F900F90CF91DF910895DF9352
:100D6000CF9300D00F92CDB7DEB79A8389837C836F
:100D70006B8389819A8105962B81FC01E65FFC4F8C
:100D800020830F900F900F900F90CF91DF910895D7
:100D9000DF93CF930F920F92CDB7DEB79A838983FB
:100DA000898180930D030F900F90CF91DF9108956B
:100DB000DF93CF9300D00F92CDB7DEB79A838983AC
:100DC0008091AE0399818923882329F081E090E006
:100DD0009C838B8302C01C821B828B819C810F9021
:100DE0000F900F900F90CF91DF910895DF93CF93E5
:100DF000CDB7DEB78091AD03882F90E0CF91DF9122
:100E00000895DF93CF930F920F92CDB7DEB79A83F9
:100E1000898389819A810596FC01E655FC4F808182
:100E2000882F90E00F900F90CF91DF910895DF937E
:100E3000CF9300D000D0CDB7DEB79C838B837E8369
:100E40006D838D819E819A83898389819A81982F70
:100E500088279A8389832B813C8189819A81820F9B
:100E6000931F9A83898389819A8126960FB6F89475
:100E7000DEBF0FBECDBFCF91DF910895DF93CF933B
:100E800000D00F92CDB7DEB79C838B838B819C8182
:100E900090709A83898389819A810F900F900F9027
:100EA0000F90CF91DF910895DF93CF9300D00F92F1
:100EB000CDB7DEB79C838B838B819C8180709A83B6
:100EC000898389819A81892F99279A838983898146
:100ED0009A810F900F900F900F90CF91DF9108950E
:100EE000DF93CF930F920F92CDB7DEB79A838983AA
:100EF0008091F2039091F3030097D1F78981809359
:100F00000C0381E080930E0382E080930D030E9426
:100F10006C060F900F90CF91DF910895DF93CF93E0
:100F200000D00F92CDB7DEB79A8389837C836B8321
:100F30008091F2039091F3030097D1F78981809318
:100F40000C0382E080930E038B8180930F0381E07A
:100F50008093100384E080930D030E946C068091BF
:100F6000AF03882F90E00F900F900F900F90CF91CC
:100F7000DF910895DF93CF9300D000D0CDB7DEB7D7
:100F80009A8389837C836B835E834D838091F20394
:100F90009091F3030097D1F7898180930C0383E04C
:100FA00080930E038B8180930F038D8180931003B8
:100FB00084E080930D030E946C0626960FB6F89489
:100FC000DEBF0FBECDBFCF91DF910895DF93CF93EA
:100FD00000D00F92CDB7DEB79A8389837C836B8371
:100FE0008091F2039091F3030097D1F78981809368
:100FF0000C0382E080930E038B8180930F0382E0C9
:101000008093100384E080930D030E946C0680910E
:10101000AF03482F50E08091B003282F30E0CA0181
:10102000B9010E9417070F900F900F900F90CF916A
:10103000DF910895DF93CF9300D000D0CDB7DEB716
:101040009A8389837C836B835E834D838091F203D3
:101050009091F3030097D1F7898180930C0383E08B
:1010600080930E038B8180930F038D819E810E945C
:101070003E07809310038D819E810E9454078093C8
:10108000110385E080930D030E946C0626960FB62F
:10109000F894DEBF0FBECDBFCF91DF910895DF93EF
:1010A000CF93CDB7DEB728970FB6F894DEBF0FBE4B
:1010B000CDBF9C838B834D835E836F837887E0EC09
:1010C000F0E082E48083E1ECF0E088E98083E2EC08
:1010D000F0E086E0808360E074E284EF99E42D81A3
:1010E0003E814F8158850E947711DC01CB01BC0104
:1010F000CD010E94A70EDC01CB0101979A83898361
:10110000E5ECF0E089819A81892F99278083E4ECCE
:10111000F0E08981808360E074E284E799E42D81C6
:101120003E814F8158850E947711DC01CB01BC01C3
:10113000CD0120E030E040E451E40E947D10DC016C
:10114000CB018093FA059093FB05A093FC05B09327
:10115000FD052091FA053091FB054091FC05509169
:10116000FD0560E070E08AE793E40E947711DC01FE
:10117000CB01BC01CD010E94A70EDC01CB019093F5
:10118000F9058093F805AEE2B0E0EEE2F0E0808190
:101190008B7F8C93AEE2B0E0EEE2F0E0808188607D
:1011A0008C93E6ECF0E08FEF80831092F4041092C1
:1011B000F50481E090E028960FB6F894DEBF0FBEEC
:1011C000CDBFCF91DF910895DF93CF93CDB7DEB739
:1011D000CF91DF910895DF93CF93CDB7DEB78091A4
:1011E000F5048093F404CF91DF910895DF93CF93BA
:1011F00000D000D0CDB7DEB79C838B837E836D8318
:10120000F894AEE2B0E0EEE2F0E08081877F8C936C
:10121000AEE2B0E0EEE2F0E0808184608C931A826E
:10122000198220C0E0ECF0E08081882F90E080728D
:1012300090700097B9F3A0ECB0E0E0ECF0E08081B2
:1012400080648C93A6ECB0E029813A818B819C81EB
:10125000FC01E20FF31F80818C9389819A810196B2
:101260009A83898329813A818D819E812817390744
:10127000CCF2E0ECF0E08081882F90E080749070F8
:101280000097B9F3AEE2B0E0EEE2F0E080818B7F50
:101290008C93AEE2B0E0EEE2F0E0808188608C9367
:1012A000789489819A8126960FB6F894DEBF0FBE96
:1012B000CDBFCF91DF9108950F931F93DF93CF930D
:1012C000CDB7DEB72A970FB6F894DEBF0FBECDBFFD
:1012D0009E838D8378876F839091F4048091F504C9
:1012E000981719F41A8619862DC00E94BF0A9A838E
:1012F000898329813A818F8198858217930724F405
:101300008F8198859A8389831C821B8210C02B81D0
:101310003C818D819E818C01020F131F0E941E0B48
:10132000F80180838B819C8101969C838B832B8128
:101330003C8189819A81281739074CF389819A81E8
:101340009A87898789859A852A960FB6F894DEBF91
:101350000FBECDBFCF91DF911F910F910895DF9305
:10136000CF930F920F92CDB7DEB79A8389831092F5
:1013700001061092000629813A818091F80590912A
:10138000F905820F931F0A969093FF058093FE053F
:101390000F900F90CF91DF910895DF93CF93CDB74A
:1013A000DEB76A970FB6F894DEBF0FBECDBF80914F
:1013B0000006909101060196909301068093000625
:1013C00020910006309101068091FE059091FF0565
:1013D0008217930728F481E090E09A8F898FC4C028
:1013E0008091FA059091FB05A091FC05B091FD0557
:1013F0008D8B9E8BAF8BB88F6D897E898F89988DF1
:101400002BEA3AEA4AEA5EE30E947D10DC01CB0156
:10141000898B9A8BAB8BBC8B69897A898B899C89E8
:1014200020E030E040E85FE30E94831288231CF450
:1014300081E0888B91C069897A898B899C8920E0B9
:1014400030E04FE753E40E94231218160CF07BC0E3
:101450006D897E898F89988D20E030E04AE754E4D9
:101460000E947711DC01CB018C879D87AE87BF87F7
:101470006C857D858E859F8520E030E04AE753E4CA
:101480000E947D10DC01CB0188879987AA87BB87E2
:10149000688579858A859B8520E030E040E85FE3B8
:1014A0000E94831288232CF481E090E09F838E8336
:1014B0003FC0688579858A859B8520E03FEF4FE7AF
:1014C00057E40E94231218164CF56C857D858E8595
:1014D0009F8520E030E040E251E40E947D10DC0175
:1014E000CB01BC01CD010E94A70EDC01CB019F8383
:1014F0008E830FC089E190E09D838C838C819D81D8
:101500000197F1F79D838C838E819F8101979F8343
:101510008E838E819F81009769F724C068857985C5
:101520008A859B850E94A70EDC01CB019F838E8359
:101530008E819F819B838A838A819B810197F1F7AA
:101540009B838A830FC069897A898B899C890E94D1
:10155000A70EDC01CB01888B8889898389818A95D4
:10156000F1F789831A8E198E898D9A8D6A960FB636
:10157000F894DEBF0FBECDBFCF91DF910895DF930A
:10158000CF930F920F92CDB7DEB79091F404809174
:10159000F504981719F41A82198225C09091F40461
:1015A0008091F504981778F48091F504282F30E0A5
:1015B0008091F404882F90E0A901481B590BCA01BF
:1015C0009A83898310C08091F504282F30E08091A0
:1015D000F404882F90E0A901481B590BCA018050E0
:1015E0009F4F9A83898389819A810F900F90CF9121
:1015F000DF910895DF93CF930F92CDB7DEB7898344
:101600000E94BF0A8F3F9105A9F08091F504882FB1
:1016100090E0FC01EC50FC4F898180838091F504BF
:101620008F3F19F41092F50405C08091F5048F5F87
:101630008093F5040F90CF91DF910895DF93CF93BE
:101640000F920F92CDB7DEB79091F4048091F5041C
:10165000981719F48FEF8A8317C08091F404882FAC
:1016600090E0FC01EC50FC4F808189838091F40470
:101670008F3F19F41092F40405C08091F4048F5F39
:101680008093F40489818A838A810F900F90CF918F
:10169000DF9108951F920F920FB60F9200905B009A
:1016A0000F9211242F933F934F935F936F937F93E8
:1016B0008F939F93AF93BF93EF93FF93DF93CF935A
:1016C000CDB7DEB7E6ECF0E080810E94FA0ACF9158
:1016D000DF91FF91EF91BF91AF919F918F917F919A
:1016E0006F915F914F913F912F910F9000925B000E
:1016F0000F900FBE0F901F901895DF93CF93CDB72B
:10170000DEB7E1E8F0E084E08083E8E8F0E081E73C
:1017100092E091838083EFE6F0E082E08083E4E86A
:10172000F0E011821082CF91DF910895DF93CF9383
:1017300000D00F92CDB7DEB79A83898389819A81D1
:1017400040E050E061E677E40E94170D009719F43D
:101750001C821B820CC01092030610920506109288
:1017600004061092020681E090E09C838B838B81BB
:101770009C810F900F900F900F90CF91DF91089563
:10178000DF93CF93CDB7DEB70E94660DCF91DF9187
:101790000895DF93CF93CDB7DEB72E970FB6F894A9
:1017A000DEBF0FBECDBF9C878B878B859C859C83BE
:1017B0008B838B818A838B819C81892F9927898355
:1017C0008FEF8D8385E58E838A818F838A818095D3
:1017D000888789818987898180958A87CE01059646
:1017E00066E070E00E946D0D8630910519F01E864E
:1017F0001D8604C081E090E09E878D878D859E8543
:101800002E960FB6F894DEBF0FBECDBFCF91DF91FD
:101810000895DF93CF93CDB7DEB729970FB6F8942D
:10182000DEBF0FBECDBF80910306813029F421E0D9
:1018300030E039872887E3C080910206863018F5AA
:1018400080910206882F90E0AC014A5F594F809149
:101850000206282F30E086E090E0BC01621B730B8B
:101860009B01CA01B9010E94A50D9F838E838E81C1
:101870009F817FEF8F3F970731F08E819091020615
:10188000890F8093020680910206823008F474C0AA
:101890001C821B8222C08B819C81FC01EA5FF94F74
:1018A00080818F3FA9F480910206882F90E09C01EF
:1018B000225030408B819C81281739074CF08B8156
:1018C0009C810196FC01EA5FF94F8081853571F0BA
:1018D0008B819C8101969C838B8380910206282FAB
:1018E00030E08B819C8182179307ACF28B819C81C5
:1018F000181619060CF040C080910206282F30E01F
:101900008B819C812817390771F48B819C81019709
:10191000FC01EA5FF94F80818F3F29F48B819C8124
:1019200001979C838B838B819C819A83898315C0CB
:1019300029813A818B819C81281B390B89819A816D
:10194000FC01EA5FF94F8081F901EA5FF94F80837A
:1019500089819A8101969A83898380910206282F32
:1019600030E089819A818217930714F380910206EF
:101970009B81891B80930206809102068630C9F5FF
:10198000809106068F3F89F580910706853569F5B8
:101990008091090680958D83909108068D81981716
:1019A00021F580910B0680958D8390910A068D819B
:1019B0009817D9F480910A06882F90E0982F8827ED
:1019C000909305068093040680910806282F30E046
:1019D0008091040690910506820F931F909305064F
:1019E0008093040681E0809303061092060610920D
:1019F000020680910306282F30E0398728878885E2
:101A0000998529960FB6F894DEBF0FBECDBFCF9152
:101A1000DF910895DF93CF93CDB7DEB71092030621
:101A20008091040690910506CF91DF910895DF9390
:101A3000CF93CDB7DEB728970FB6F894DEBF0FBEB1
:101A4000CDBF9C838B834D835E836F837887E8EC67
:101A5000F0E082E48083E9ECF0E088E98083EAEC5E
:101A6000F0E086E0808360E074E284EF99E42D8109
:101A70003E814F8158850E947711DC01CB01BC016A
:101A8000CD010E94A70EDC01CB0101979A838983C7
:101A9000EDECF0E089819A81892F99278083ECEC25
:101AA000F0E089818083EEECF0E08FEF808310928C
:101AB000F6051092F70581E090E028960FB6F894AD
:101AC000DEBF0FBECDBFCF91DF910895DF93CF93DF
:101AD000CDB7DEB7CF91DF910895DF93CF9300D0DC
:101AE00000D0CDB7DEB79C838B837E836D831A8253
:101AF000198219C0E8ECF0E08081882F90E08072B4
:101B000090700097B9F3AEECB0E029813A818B81F7
:101B10009C81FC01E20FF31F80818C9389819A8163
:101B200001969A83898329813A818D819E81281724
:101B3000390704F389819A8126960FB6F894DEBF9F
:101B40000FBECDBFCF91DF9108950F931F93DF9309
:101B5000CF93CDB7DEB728970FB6F894DEBF0FBE90
:101B6000CDBF9E838D8378876F830E94EB0D9A8310
:101B7000898329813A818F8198858217930724F47C
:101B80008F8198859A8389831C821B8210C02B8148
:101B90003C818D819E818C01020F131F0E944A0E91
:101BA000F80180838B819C8101969C838B832B81A0
:101BB0003C8189819A81281739074CF389819A8160
:101BC00028960FB6F894DEBF0FBECDBFCF91DF9140
:101BD0001F910F910895DF93CF930F920F92CDB77E
:101BE000DEB79091F6058091F705981719F41A82DF
:101BF000198225C09091F6058091F705981778F421
:101C00008091F705282F30E08091F605882F90E02D
:101C1000A901481B590BCA019A83898310C080917E
:101C2000F705282F30E08091F605882F90E0A90174
:101C3000481B590BCA0180509F4F9A838983898121
:101C40009A810F900F90CF91DF910895DF93CF93FA
:101C50000F92CDB7DEB789830E94EB0D8F3F9105C0
:101C6000A9F08091F705882F90E0FC01EA50FB4F26
:101C7000898180838091F7058F3F19F41092F705D1
:101C800005C08091F7058F5F8093F7050F90CF9186
:101C9000DF910895DF93CF930F920F92CDB7DEB708
:101CA0000E94EB0D009719F48FEF8A8317C0809183
:101CB000F605882F90E0FC01EA50FB4F8081898374
:101CC0008091F6058F3F19F41092F60505C08091BA
:101CD000F6058F5F8093F60589818A838A810F904C
:101CE0000F90CF91DF9108951F920F920FB60F9230
:101CF00000905B000F9211242F933F934F935F93BB
:101D00006F937F938F939F93AF93BF93EF93FF93C3
:101D1000DF93CF93CDB7DEB7EEECF0E080810E9489
:101D2000260ECF91DF91FF91EF91BF91AF919F91DF
:101D30008F917F916F915F914F913F912F910F9074
:101D400000925B000F900FBE0F901F901895EF92BE
:101D5000FF920F931F937B018C0120E030E040E065
:101D60005FE40E94531288238CF0C801B70120E081
:101D700030E040E05FE40E941F100E9411139B01BD
:101D8000AC01205030404040504806C0C801B70167
:101D90000E9411139B01AC01B901CA011F910F915F
:101DA000FF90EF900895A0E0B0E0E9EDFEE00C9424
:101DB0005A15DC012B01FA019C91923008F439C1CB
:101DC000EB018881823008F433C1943069F48430A7
:101DD00009F02FC111969C9111978981981709F4E8
:101DE00028C1A2E0B2E025C1843009F421C18230CB
:101DF000A9F4923009F01DC19A01AD0188E0EA0111
:101E00000990AE01E90109929E018150C1F7E201FA
:101E1000898111969C918923818308C1923009F4AC
:101E200007C112962D903C901397EB018A819B81FC
:101E30001496AD90BD90CD90DC901797EC80FD800E
:101E40000E811F819101281B390BB90137FF04C096
:101E500066277727621B730B603271050CF061C037
:101E6000121613066CF537014801062E04C096942D
:101E70008794779467940A94D2F721E030E040E0A9
:101E800050E004C0220F331F441F551F6A95D2F73C
:101E900021503040404050402E213F2140235123CB
:101EA000211531054105510521F021E030E040E0E8
:101EB00050E079018A01E628F728082919293CC051
:101EC000232BD1F1260E371E35014601062E04C004
:101ED00096948794779467940A94D2F721E030E03F
:101EE00040E050E004C0220F331F441F551F6A9585
:101EF000D2F721503040404050402A213B214C2114
:101F00005D21211531054105510521F021E030E029
:101F100040E050E059016A01A628B728C828D9280E
:101F20000BC0821593052CF01C01AA24BB2465016B
:101F300003C0EE24FF24870111969C91D2011196D3
:101F40008C91981709F445C0992339F0A80197019D
:101F50002A193B094C095D0906C0A60195012E19F5
:101F60003F09400B510B57FD08C01182338222827A
:101F700024833583468357831DC081E08183338268
:101F8000228288279927DC01821B930BA40BB50BB7
:101F900084839583A683B7830DC0220F331F441F0C
:101FA000551F24833583468357838281938101970C
:101FB000938382832481358146815781DA01C90167
:101FC0000197A109B1098F5F9F4FAF4FBF4328F31E
:101FD0000BC0918333822282EA0CFB1C0C1D1D1D59
:101FE000E482F5820683178383E080832481358130
:101FF0004681578157FF1AC0C901AA2797FDA095AE
:10200000BA2F81709070A070B07056954795379533
:102010002795822B932BA42BB52B84839583A683A2
:10202000B78382819381019693838283DF0101C00C
:10203000D201CD01CDB7DEB7E2E10C947615A0E276
:10204000B0E0E5E2F0E10C94661569837A838B8356
:102050009C832D833E834F835887E9E0EE2EF12C3D
:10206000EC0EFD1ECE010196B7010E9489148E016F
:102070000F5E1F4FCE010596B8010E9489148A8910
:1020800091E089278A8BC701B801AE01475E5F4F97
:102090000E94D30E0E94B413A096E6E00C94821521
:1020A000A0E2B0E0E6E5F0E10C94661569837A837E
:1020B0008B839C832D833E834F835887F9E0EF2EDB
:1020C000F12CEC0EFD1ECE010196B7010E94891481
:1020D0008E010F5E1F4FCE010596B8010E94891434
:1020E000C701B801AE01475E5F4F0E94D30E0E9448
:1020F000B413A096E6E00C948215A0E2B0E0E3E809
:10210000F0E10C945A1569837A838B839C832D8329
:102110003E834F835887CE010196BE01675F7F4F94
:102120000E948914CE010596BE016F5E7F4F0E940A
:1021300089149985923088F089898230C8F094306A
:1021400019F4823051F404C0843029F4923081F4BF
:1021500082E092E0C6C0923049F420E09A858A89F4
:10216000981321E02A87CE010996BBC0823049F43A
:1021700020E09A858A89981321E02A8BCE01419626
:10218000B0C02D843E844F8458886D887E888F88A7
:10219000988CEE24FF248701AA24BB24650140E02B
:1021A00050E060E070E0E0E0F0E0C101817090702C
:1021B000892BE9F0E60CF71C081D191D9A01AB01EB
:1021C0002A0D3B1D4C1D5D1D80E090E0A0E0B0E0BD
:1021D000E614F7040805190520F481E090E0A0E07A
:1021E000B0E0BA01A901480F591F6A1F7B1FAA0C52
:1021F000BB1CCC1CDD1C97FE08C081E090E0A0E079
:10220000B0E0A82AB92ACA2ADB2A3196E032F105C1
:1022100049F0660C771C881C991C56944794379497
:102220002794C3CFFA85EA892B893C898B859C85C5
:10223000280F391F2E5F3F4F17C0CA018170907061
:10224000892B61F016950795F794E79480E090E06C
:10225000A0E0B0E8E82AF92A0A2B1B2B76956795AF
:10226000579547952F5F3F4F77FDE7CF0CC0440F41
:10227000551F661F771F17FD4160EE0CFF1C001FE6
:10228000111F21503040403090E0590790E069071D
:1022900090E4790760F32B8F3C8FDB01CA018F77C5
:1022A0009070A070B07080349105A105B10561F403
:1022B00047FD0AC0E114F1040105110529F0405C55
:1022C0005F4F6F4F7F4F40781A8EFE1711F081E0FD
:1022D0008A8F4D8F5E8F6F8F78A383E0898FCE01B9
:1022E00049960E94B413A096E2E10C947615A8E1F9
:1022F000B0E0EDE7F1E10C94621569837A838B839A
:102300009C832D833E834F835887B9E0EB2EF12CBD
:10231000EC0EFD1ECE010196B7010E9489148E01BC
:102320000F5E1F4FCE010596B8010E9489142985C2
:10233000223008F47EC03989323010F4B8017CC0F4
:102340008A859A8989278A87243011F0223031F4CE
:10235000231709F06EC062E072E06EC0343039F4C9
:102360001D861E861F86188A1C861B8604C0323076
:1023700021F484E08987B7015FC02B853C858B8978
:102380009C89281B390B3C872B87ED84FE840F85A5
:102390001889AD88BE88CF88D88CEA14FB040C0558
:1023A0001D0540F4EE0CFF1C001F111F2150304092
:1023B0003C872B8720E030E040E050E080E090E078
:1023C000A0E0B0E460E070E0EA14FB040C051D0539
:1023D00040F0282B392B4A2B5B2BEA18FB080C0901
:1023E0001D09B695A79597958795EE0CFF1C001FC4
:1023F000111F6F5F7F4F6F31710531F7DA01C9012E
:102400008F779070A070B07080349105A105B105F0
:1024100061F427FD0AC0E114F1040105110529F05A
:10242000205C3F4F4F4F5F4F20782D873E874F876F
:10243000588BBE01675F7F4FCB010E94B413689633
:10244000EAE00C947E15A8E1B0E0E9E2F2E10C9438
:10245000661569837A838B839C832D833E834F83A8
:10246000588789E0E82EF12CEC0EFD1ECE01019676
:10247000B7010E9489148E010F5E1F4FCE01059691
:10248000B8010E9489148985823040F089898230A0
:1024900028F0C701B8010E94011501C08FEF6896AE
:1024A000E6E00C948215A8E1B0E0E9E5F2E10C94D5
:1024B000661569837A838B839C832D833E834F8348
:1024C000588789E0E82EF12CEC0EFD1ECE01019616
:1024D000B7010E9489148E010F5E1F4FCE01059631
:1024E000B8010E9489148985823040F08989823040
:1024F00028F0C701B8010E94011501C08FEF68964E
:10250000E6E00C948215A8E1B0E0E9E8F2E10C9471
:10251000661569837A838B839C832D833E834F83E7
:10252000588789E0E82EF12CEC0EFD1ECE010196B5
:10253000B7010E9489148E010F5E1F4FCE010596D0
:10254000B8010E9489148985823040F089898230DF
:1025500028F0C701B8010E94011501C081E068960A
:10256000E6E00C948215A8E0B0E0E9EBF2E10C940F
:1025700063159B01AC0183E08983DA01C9018827D7
:10258000B7FD83959927AA27BB27B82E21153105BA
:102590004105510519F482E089833AC08823A9F0E6
:1025A000203080E0380780E0480780E8580729F4A9
:1025B00060E070E080E09FEC30C0EE24FF248701F3
:1025C000E21AF30A040B150B02C079018A018EE1AD
:1025D000C82ED12CDC82CB82ED82FE820F8318873D
:1025E000C801B7010E94651301971816190684F4F3
:1025F000082E04C0EE0CFF1C001F111F0A94D2F716
:10260000ED82FE820F831887C81AD90ADC82CB823A
:10261000BA82CE0101960E94B4132896E9E00C9488
:102620007F15ACE0B0E0E7E1F3E10C946A15698353
:102630007A838B839C83CE010196BE016B5F7F4FB3
:102640000E9489148D81823061F1823050F1843092
:1026500021F48E81882351F12EC02F81388537FDDA
:1026600020C06E812F3131051CF06623F9F023C0A4
:102670008EE190E0821B930B29853A854B855C8522
:1026800004C056954795379527958A95D2F76623C6
:10269000B1F050954095309521953F4F4F4F5F4F8A
:1026A0000EC020E030E040E050E009C02FEF3FEFE7
:1026B0004FEF5FE704C020E030E040E050E8B901B0
:1026C000CA012C96E2E00C948615EF92FF920F93CC
:1026D0001F937B018C0180E0E81680E0F80681E022
:1026E000080780E0180788F48FEFE816F104010569
:1026F000110531F028F088E090E0A0E0B0E017C0CC
:1027000080E090E0A0E0B0E012C080E0E81680E059
:10271000F80680E0080781E0180728F088E190E0DB
:10272000A0E0B0E004C080E190E0A0E0B0E020E2F2
:1027300030E040E050E0281B390B4A0B5B0B04C033
:1027400016950795F794E7948A95D2F7F701E65F17
:10275000FD4F8081281B310941095109C9011F9191
:102760000F91FF90EF900895DF92EF92FF920F93F9
:102770001F93FC01E480F58006811781D180808160
:10278000823048F480E090E0A0E1B0E0E82AF92A45
:102790000A2B1B2BA5C0843009F49FC0823021F482
:1027A000EE24FF24870105C0E114F10401051105A1
:1027B00019F4E0E0F0E096C0628173819FEF623827
:1027C00079070CF05BC022E83FEF261B370B2A315C
:1027D00031052CF020E030E040E050E02AC0B801A4
:1027E000A701022E04C076956795579547950A94E0
:1027F000D2F781E090E0A0E0B0E004C0880F991F1C
:10280000AA1FBB1F2A95D2F70197A109B1098E21F2
:102810009F21A023B1230097A105B10521F081E0FC
:1028200090E0A0E0B0E09A01AB01282B392B4A2BB5
:102830005B2BDA01C9018F779070A070B070803483
:102840009105A105B10539F427FF09C0205C3F4F70
:102850004F4F5F4F04C0215C3F4F4F4F5F4FE0E051
:10286000F0E02030A0E03A07A0E04A07A0E45A07D1
:1028700010F0E1E0F0E079018A0127C060387105CD
:1028800064F5FB01E158FF4FD801C7018F779070C5
:10289000A070B07080349105A105B10539F4E7FE50
:1028A0000DC080E490E0A0E0B0E004C08FE390E0D1
:1028B000A0E0B0E0E80EF91E0A1F1B1F17FF05C0BD
:1028C00016950795F794E794319687E01695079546
:1028D000F794E7948A95D1F705C0EE24FF24870189
:1028E000EFEFF0E06E2F679566276795902F9F7743
:1028F000D794DD24D7948E2F8695492F462B582FB9
:102900005D29B701CA011F910F91FF90EF90DF90F1
:102910000895FC01DB01408151812281622F6F7794
:1029200070E0221F2227221F9381892F880F822B7C
:10293000282F30E0991F9927991F11969C93119782
:1029400021153105A9F5411551056105710511F4F0
:1029500082E037C082E89FEF13969C938E93129784
:102960009A01AB0167E0220F331F441F551F6A9580
:10297000D1F783E08C930DC0220F331F441F551FE6
:1029800012968D919C911397019713969C938E9319
:102990001297203080E0380780E0480780E458072D
:1029A00058F314962D933D934D935C931797089588
:1029B0002F3F310579F4411551056105710519F471
:1029C00084E08C93089564FF03C081E08C9312C06F
:1029D0001C9210C02F57304013963C932E931297A1
:1029E00083E08C9387E0440F551F661F771F8A95FD
:1029F000D1F7706414964D935D936D937C93179704
:102A000008951F93DC01FB019C91923008F447C0AC
:102A10008081823008F443C0943051F411961C91A7
:102A2000843099F58181682F70E0611B71093FC086
:102A3000843021F0923031F48230B9F181818823E1
:102A400089F12DC011961C9111978230F1F081818E
:102A50001817D9F412962D913C9113978281938186
:102A60008217930794F028173907BCF014968D91BC
:102A70009D910D90BC91A02D248135814681578177
:102A8000281739074A075B0718F4112341F00AC0D9
:102A900082179307A407B50740F4112319F061E0EA
:102AA00070E005C06FEF7FEF02C060E070E0CB0127
:102AB0001F9108952F923F924F925F926F927F9253
:102AC0008F929F92AF92BF92CF92DF92EF92FF923E
:102AD0000F931F93CF93DF93CDB7DEB7CA1BDB0BEA
:102AE0000FB6F894DEBF0FBECDBF19942A8839887F
:102AF00048885F846E847D848C849B84AA84B98496
:102B0000C884DF80EE80FD800C811B81AA81B981A1
:102B1000CE0FD11D0FB6F894DEBF0FBECDBFED01B5
:062B20000895F894FFCFB8
:102B26000100000000000000000000010202030393
:102B3600030304040404040404040505050505054B
:102B46000505050505050505050506060606060629
:102B5600060606060606060606060606060606060F
:102B660006060606060606060606070707070707F9
:102B760007070707070707070707070707070707DF
:102B860007070707070707070707070707070707CF
:102B960007070707070707070707070707070707BF
:102BA60007070707070707070707080808080808A9
:102BB600080808080808080808080808080808088F
:102BC600080808080808080808080808080808087F
:102BD600080808080808080808080808080808086F
:102BE600080808080808080808080808080808085F
:102BF600080808080808080808080808080808084F
:102C0600080808080808080808080808080808083E
:102C1600080808080808080808080808080808082E
:0A2C26000808080808080808080854
:00000001FF
