:100000000C9466000C9487000C9487000C94870075
:100010000C9487000C9487000C9487000C94870044
:100020000C9487000C9487000C9487000C94870034
:100030000C9487000C9487000C9487000C94870024
:100040000C9487000C9487000C9487000C94870014
:100050000C9487000C9487000C9487000C94870004
:100060000C9487000C9402100C9487000C94870069
:100070000C9487000C9487000C9487000C948700E4
:100080000C945A010C9487000C9487000C94870000
:100090000C94FC110C9487000C9487000C9487003E
:1000A0000C9487000C9487000C9487000C948700B4
:1000B0000C9487000C9487000C9487000C948700A4
:1000C0000C9487000C9487000C94870011241FBEA9
:1000D000CFEFD1E2DEBFCDBF00E00CBF13E0A0E068
:1000E000B2E0E8E9F5E300E00BBF02C007900D9233
:1000F000A231B107D9F715E0A2E1B3E001C01D922A
:10010000AC39B107E1F70E9489000C94CA1A0C942B
:100110000000DF93CF93CDB7DEB760970FB6F894AA
:10012000DEBF0FBECDBFE7E2F0E08FE78083E8E2FD
:10013000F0E08FE78083ABE2B0E0EBE2F0E08081BB
:100140008F778C93ABE2B0E0EBE2F0E080818F7DC3
:100150008C93ABE2B0E0EBE2F0E0808180648C93C2
:100160000E949F0B60E071EE80E090E00E9487109B
:1001700078940E94631081E090E090930102809354
:100180000002E1E7F0E082E0808383E090E09A877C
:10019000898785E090E09C878B870E9453129E8719
:1001A0008D878D859E858130910549F4E8E2F0E0E8
:1001B0008FEE808381E090E09C878B8737C08D85B0
:1001C0009E858430910549F4E8E2F0E08FED80836C
:1001D00082E090E09C878B8729C08D859E85883042
:1001E000910549F4E8E2F0E08FEB808383E090E052
:1001F0009C878B871BC08D859E858230910549F435
:10020000E8E2F0E08DEF808384E090E09C878B87CC
:100210000DC08D859E858031910541F4E8E2F0E0C6
:100220008DEF808385E090E09C878B8729853A85D8
:100230008B859C852817390731F081E090E09093F9
:100240000102809300028B859C859A8789878B8524
:100250009C85988B8F878F8598898330910509F1CC
:100260008F859889843091055CF48F8598898130D9
:10027000910589F08F8598898230910579F08DCF2D
:100280008F8598898430910579F08F85988985309C
:10029000910569F082CF0E949D037FCF0E940605E1
:1002A0007CCF0E94FF0579CF0E948B0176CF0E9400
:1002B000B40273CF1F920F920FB60F9200905B00A3
:1002C0000F9211248F939F93EF93FF93DF93CF931C
:1002D000CDB7DEB7E1E7F0E01082E4E9F0E01182AB
:1002E0001082E8E9F0E088E39AE49183808381E07A
:1002F00090E09093170380931603CF91DF91FF91C5
:10030000EF919F918F910F9000925B000F900FBE25
:100310000F901F901895DF93CF93CDB7DEB78091E4
:1003200016039091170381309105C9F58091000261
:10033000909101028130910591F51092170310926E
:1003400016038091000290910102019690930102A0
:100350008093000281E090E06EE170E04EE353E0B4
:100360000E946A0B86E090E06EE170E045EE51E09D
:100370000E946A0B88E090E06EE170E042E652E095
:100380000E946A0B85E190E06EE170E048EC50E07D
:100390000E946A0BE1E7F0E082E08083E2C0809196
:1003A0001603909117038130910549F58091000261
:1003B000909101028230910511F51092170310926D
:1003C0001603809100029091010201969093010220
:1003D0008093000285E190E06EE170E04AE050E039
:1003E0000E946A0B86E090E06EE170E040E951E027
:1003F0000E946A0BE1E7F0E082E08083B2C0809166
:100400001603909117038130910509F58091000240
:100410009091010283309105D1F41092170310924C
:1004200016038091000290910102019690930102BF
:100430008093000287E090E06EE170E04EEF51E0C3
:100440000E946A0BE1E7F0E082E080838AC080913D
:100450001603909117038130910509F580910002F0
:100460009091010284309105D1F4109217031092FB
:10047000160380910002909101020196909301026F
:100480008093000287E090E06EE170E048EA51E07E
:100490000E946A0BE1E7F0E082E0808362C0809115
:1004A00016039091170381309105C9F580910002E0
:1004B000909101028530910591F5109217031092E9
:1004C000160380910002909101020196909301021F
:1004D0008093000281E090E06EE170E04EE353E033
:1004E0000E946A0B86E090E06EE170E045EE51E01C
:1004F0000E946A0B88E090E06EE170E042E652E014
:100500000E946A0B85E190E06EE170E048EC50E0FB
:100510000E946A0BE1E7F0E082E0808322C08091D4
:1005200016039091170381309105D9F48091000250
:100530009091010286309105A1F410921703109258
:10054000160381E090E09093010280930002E1E7BE
:10055000F0E082E0808381E090E090931303809349
:100560001203CF91DF910895DF93CF93CDB7DEB71C
:10057000809116039091170381309105C9F5809100
:100580000002909101028130910591F510921703BC
:1005900010921603809100029091010201969093AF
:1005A00001028093000281E090E06EE170E04EE392
:1005B00053E00E946A0B86E090E06EE170E045EE49
:1005C00051E00E946A0B88E090E06EE170E042E644
:1005D00052E00E946A0B85E190E06EE170E048EC29
:1005E00050E00E946A0BE1E7F0E082E08083A2C065
:1005F000809116039091170381309105C9F5809180
:100600000002909101028230910591F5109217033A
:10061000109216038091000290910102019690932E
:1006200001028093000281E090E06EE170E043ED12
:1006300052E00E946A0B86E090E06EE170E049E5CE
:1006400052E00E946A0B88E090E06EE170E041E6C3
:1006500053E00E946A0B85E190E06EE170E041E0BA
:1006600050E00E946A0BE1E7F0E082E0808362C024
:10067000809116039091170381309105C9F58091FF
:100680000002909101028330910591F510921703B9
:1006900010921603809100029091010201969093AE
:1006A00001028093000281E090E06EE170E04EE391
:1006B00053E00E946A0B86E090E06EE170E045EE48
:1006C00051E00E946A0B88E090E06EE170E042E643
:1006D00052E00E946A0B85E190E06EE170E048EC28
:1006E00050E00E946A0BE1E7F0E082E0808322C0E4
:1006F000809116039091170381309105D9F4809170
:1007000000029091010284309105A1F41092170328
:100710001092160381E090E0909301028093000212
:10072000E1E7F0E082E0808381E090E090931303C2
:1007300080931203CF91DF910895DF93CF93CDB7CC
:10074000DEB7809116039091170381309105C9F5AA
:1007500080910002909101028130910591F51092F3
:1007600017031092160380910002909101020196E6
:10077000909301028093000281E090E06EE170E0CE
:1007800043E453E00E946A0B86E090E06EE170E083
:1007900040E352E00E946A0B88E090E06EE170E076
:1007A0004DE950E00E946A0B85E190E06EE170E057
:1007B0004EE350E00E946A0BE1E7F0E082E08083C4
:1007C00022C1809116039091170381309105C9F5DC
:1007D00080910002909101028230910591F5109272
:1007E0001703109216038091000290910102019666
:1007F000909301028093000281E090E06EE170E04E
:100800004AE253E00E946A0B86E090E06EE170E0FD
:1008100041E452E00E946A0B88E090E06EE170E0F3
:100820004FEB50E00E946A0B85E190E06EE170E0D2
:100830004DE151E00E946A0BE1E7F0E082E0808345
:10084000E2C0809116039091170381309105C9F59C
:1008500080910002909101028330910591F51092F0
:1008600017031092160380910002909101020196E5
:10087000909301028093000281E090E06EE170E0CD
:100880004DEF52E00E946A0B86E090E06EE170E06E
:1008900041E452E00E946A0B88E090E06EE170E073
:1008A00042EC51E00E946A0B85E190E06EE170E05D
:1008B0004CEF51E00E946A0BE1E7F0E082E08083B8
:1008C000A2C0809116039091170381309105C9F55C
:1008D00080910002909101028430910591F510926F
:1008E0001703109216038091000290910102019665
:1008F000909301028093000281E090E06EE170E04D
:100900004BE453E00E946A0B86E090E06EE170E0F9
:100910004FE352E00E946A0B88E090E06EE170E0E5
:1009200042EB52E00E946A0B85E190E06EE170E0DC
:1009300049E152E00E946A0BE1E7F0E082E0808347
:1009400062C0809116039091170381309105C9F51B
:1009500080910002909101028530910591F581E02E
:1009600090E06EE170E04EE353E00E946A0B86E097
:1009700090E06EE170E045EE51E00E946A0B88E085
:1009800090E06EE170E042E652E00E946A0B85E181
:1009900090E06EE170E048EC50E00E946A0B10922B
:1009A00017031092160380910002909101020196A4
:1009B0009093010280930002E1E7F0E082E08083FF
:1009C00022C0809116039091170381309105D9F4CC
:1009D000809100029091010286309105A1F410925D
:1009E00017031092160381E090E090930102809328
:1009F0000002E1E7F0E082E0808381E090E0909304
:100A0000130380931203CF91DF910895DF93CF9367
:100A1000CDB7DEB780911603909117038130910511
:100A2000C9F580910002909101028130910591F504
:100A30001092170310921603809100029091010208
:100A40000196909301028093000281E090E06EE1B4
:100A500070E048E653E00E946A0B86E090E06EE1A9
:100A600070E04CE252E00E946A0B88E090E06EE198
:100A700070E043E452E00E946A0B85E190E06EE191
:100A800070E04EE351E00E946A0BE1E7F0E082E0A3
:100A90008083B2C080911603909117038130910535
:100AA00009F5809100029091010282309105D1F404
:100AB0001092170310921603809100029091010288
:100AC0000196909301028093000286E190E06EE12E
:100AD00070E045E050E00E946A0BE1E7F0E082E060
:100AE00080838AC08091160390911703813091050D
:100AF000C9F580910002909101028330910591F532
:100B00001092170310921603809100029091010237
:100B10000196909301028093000281E090E06EE1E3
:100B200070E046EA53E00E946A0B86E090E06EE1D6
:100B300070E044E352E00E946A0B88E090E06EE1CE
:100B400070E046E052E00E946A0B85E190E06EE1C1
:100B500070E045EC50E00E946A0BE1E7F0E082E0D3
:100B600080834AC0809116039091170381309105CC
:100B700009F5809100029091010284309105D1F431
:100B800010921703109216038091000290910102B7
:100B90000196909301028093000286E190E06EE15D
:100BA00070E042EC50E00E946A0BE1E7F0E082E086
:100BB000808322C0809116039091170381309105A4
:100BC000D9F4809100029091010285309105A1F441
:100BD000109217031092160381E090E090930102A7
:100BE00080930002E1E7F0E082E0808381E090E022
:100BF0009093130380931203CF91DF910895DF93B5
:100C0000CF93CDB7DEB78091160390911703813053
:100C10009105C9F580910002909101028130910502
:100C200091F5109217031092160380910002909193
:100C300001020196909301028093000281E090E00E
:100C40006EE170E048E653E00E946A0B86E090E0B7
:100C50006EE170E04CE252E00E946A0B88E090E0A6
:100C60006EE170E043E452E00E946A0B85E190E09F
:100C70006EE170E04EE351E00E946A0BE1E7F0E0C4
:100C800082E08083B2C08091160390911703813077
:100C9000910509F580910002909101028230910541
:100CA000D1F41092170310921603809100029091D4
:100CB00001020196909301028093000286E190E088
:100CC0006EE170E044E651E00E946A0BE1E7F0E07B
:100CD00082E080838AC0809116039091170381304F
:100CE0009105C9F580910002909101028330910530
:100CF00091F51092170310921603809100029091C3
:100D000001020196909301028093000281E090E03D
:100D10006EE170E046EA53E00E946A0B86E090E0E4
:100D20006EE170E044E352E00E946A0B88E090E0DC
:100D30006EE170E046E052E00E946A0B85E190E0CF
:100D40006EE170E045EC50E00E946A0BE1E7F0E0F4
:100D500082E080834AC0809116039091170381300E
:100D6000910509F58091000290910102843091056E
:100D7000D1F4109217031092160380910002909103
:100D800001020196909301028093000286E190E0B7
:100D90006EE170E042EC50E00E946A0BE1E7F0E0A7
:100DA00082E0808322C080911603909117038130E6
:100DB0009105D9F48091000290910102853091054E
:100DC000A1F4109217031092160381E090E0909323
:100DD000010280930002E1E7F0E082E0808381E09D
:100DE00090E09093130380931203CF91DF910895C5
:100DF000DF93CF93CDB7DEB7E0E3F0E01082CF9181
:100E0000DF910895DF93CF9300D000D0CDB7DEB748
:100E10009E838D83E1E3F0E08FEF808381E090E0BB
:100E20009A83898389819A810D8002C0880F991FD6
:100E30000A94E2F79A838983EFE2F0E08081282F19
:100E400030E089819A8182239323009729F081E001
:100E500090E09C838B8302C01C821B82E1E3F0E064
:100E600010828B819C8126960FB6F894DEBF0FBE50
:100E7000CDBFCF91DF910895DF93CF93CDB7DEB78C
:100E80002A970FB6F894DEBF0FBECDBF9E838D8329
:100E900078876F838F8198850196AA2797FDA09503
:100EA000BA2FBC01CD010E9478169B01AC0160E015
:100EB00074E284EF99E40E943C15DC01CB01898344
:100EC0009A83AB83BC838D819E8129813A814B813A
:100ED0005C81BA01A9010E94070D009719F41A86D6
:100EE00019860EC081E090E0909303028093020285
:100EF000109201041092000481E090E09A878987A3
:100F000089859A852A960FB6F894DEBF0FBECDBFAD
:100F1000CF91DF910895DF93CF93CDB7DEB70E94D5
:100F20009C0DCF91DF910895DF93CF9300D00F9266
:100F3000CDB7DEB719828091000490910104813011
:100F4000910509F4AAC081E090E090930104809398
:100F5000000480911B03893958F084E090E090935D
:100F6000030280930202109201041092000495C0C3
:100F700080911C03813019F180911C038230F9F0BB
:100F800080911C038330D9F080911C038430B9F028
:100F900080911C03853099F080911C03863079F094
:100FA00080911C03833859F084E090E09093030211
:100FB0008093020210920104109200046EC08FEF21
:100FC000809318038FEF809319031C820EC08C81CD
:100FD000882F90E00296FC01E85EFC4F90818981A9
:100FE000890F89838C818F5F8C838C81282F30E0DF
:100FF00080911B03882F90E00196281739073CF356
:1010000080911B03882F90E09C012D5F3F4F8981C9
:101010008095F901E85EFC4F8083809102029091F7
:1010200003028630910539F080910202909103020B
:101030008730910511F40E94A30D80911B038C5FF2
:101040008B838B81282F30E088E193E0B9010E94E7
:10105000AE0D8A839B818A81981759F082E090E0D7
:1010600090930302809302021092010410920004F4
:1010700014C080911C03823041F480911E03882F9C
:1010800090E006960E94670E04C086E090E00E9401
:10109000670E10920302109202020F900F900F90B1
:1010A0000F90CF91DF910895DF93CF9300D00F92EF
:1010B000CDB7DEB7198280910004909101040097AA
:1010C00009F453C180911A038E3F59F481E090E0F6
:1010D0009093030280930202109201041092000484
:1010E00044C18091020290910302009729F410926A
:1010F000FF0386E08093FE038091FF03882F90E03A
:10110000AC0148545C4F8091FE03282F30E0809161
:10111000FF03882F90E0281B390BCA01B9010E94F8
:10112000140E8A839091FF038A81890F8093FF03B5
:101130009091FF038091FE039817D8F40E94850ECA
:1011400081309105B1F48091FF03882339F486E062
:1011500090E0909303028093020206C087E090E043
:1011600090930302809302021092010410920004F3
:10117000FCC01C822CC08C81882F90E0FC01E854BC
:10118000FC4F80818F3F51F48C81882F90E0019635
:10119000FC01E854FC4F80818F3F21F18C81282F86
:1011A00030E08091FF03882F90E0029728173907DD
:1011B00059F48091FF03882F90E00197FC01E854D7
:1011C000FC4F80818F3F71F08C818F5F8C838C818D
:1011D000282F30E08091FF03882F90E00197281797
:1011E00039074CF28C81882379F11B8216C08B81E0
:1011F000482F50E08B81282F30E08C81882F90E0A1
:10120000820F931FFC01E854FC4F8081FA01E854DF
:10121000FC4F80838B818F5F8B838B81482F50E0C5
:101220008091FF03282F30E08C81882F90E0B90156
:10123000681B790BCB0148175907CCF28091FF034B
:101240009C81891B8093FF039091FF038091FE0393
:10125000981738F485E090E090930302809302029F
:1012600084C090911A038091BA03981759F087E0CF
:1012700090E0909303028093020210920104109276
:10128000000473C08091BB038C5F8093FE03909138
:10129000FF038091FE03981748F58091FF03882F84
:1012A00090E0AC0148545C4F8091FE03282F30E061
:1012B0008091FF03882F90E0281B390BCA01B901E8
:1012C0000E94140E8A839091FF038A81890F809374
:1012D000FF039091FF038091FE03981738F485E097
:1012E00090E090930302809302023FC01C820EC0E4
:1012F0008C81882F90E00296FC01E854FC4F90818D
:101300008981890F89838C818F5F8C838C81282FC1
:1013100030E08091BB03882F90E0019628173907B1
:101320003CF38981809589838091BB03882F90E06D
:101330000396FC01E854FC4F90818981981759F07D
:1013400087E090E0909303028093020210920104E0
:10135000109200040AC081E090E090930302809311
:10136000020210920104109200040F900F900F904F
:101370000F90CF91DF910895DF93CF93CDB7DEB774
:101380000E9494078091020290910302009749F411
:101390000E945408809102029091030285309105C9
:1013A000B9F3CF91DF910895DF93CF93CDB7DEB737
:1013B0008091020290910302CF91DF910895DF9313
:1013C000CF930F920F92CDB7DEB79A83898389812D
:1013D00080931A030F900F90CF91DF910895DF93C0
:1013E000CF930F920F92CDB7DEB79A83898389810D
:1013F00080931C030F900F90CF91DF910895DF939E
:10140000CF9300D00F92CDB7DEB79A8389837C83C8
:101410006B8389819A8105962B81FC01E85EFC4FE4
:1014200020830F900F900F900F90CF91DF91089530
:10143000DF93CF930F920F92CDB7DEB79A83898354
:10144000898180931B030F900F90CF91DF910895B6
:10145000DF93CF9300D00F92CDB7DEB79A83898305
:101460008091BC0399818923882329F081E090E051
:101470009C838B8302C01C821B828B819C810F907A
:101480000F900F900F90CF91DF910895DF93CF933E
:10149000CDB7DEB78091BB03882F90E0CF91DF916D
:1014A0000895DF93CF930F920F92CDB7DEB79A8353
:1014B000898389819A810596FC01E854FC4F8081DB
:1014C000882F90E00F900F90CF91DF910895DF93D8
:1014D000CF9300D000D0CDB7DEB79C838B837E83C3
:1014E0006D838D819E819A83898389819A81982FCA
:1014F00088279A8389832B813C8189819A81820FF5
:10150000931F9A83898389819A8126960FB6F894CE
:10151000DEBF0FBECDBFCF91DF910895DF93CF9394
:1015200000D00F92CDB7DEB79C838B838B819C81DB
:1015300090709A83898389819A810F900F900F9080
:101540000F90CF91DF910895DF93CF9300D00F924A
:10155000CDB7DEB79C838B838B819C8180709A830F
:10156000898389819A81892F99279A83898389819F
:101570009A810F900F900F900F90CF91DF91089567
:10158000DF93CF930F920F92CDB7DEB79A83898303
:1015900080910004909101040097D1F78981809394
:1015A0001A0381E080931C0382E080931B030E9456
:1015B000BC090F900F90CF91DF910895DF93CF93E7
:1015C00000D00F92CDB7DEB79A8389837C836B837B
:1015D00080910004909101040097D1F78981809354
:1015E0001A0382E080931C038B8180931D0381E0AA
:1015F00080931E0384E080931B030E94BC098091AA
:10160000BD03882F90E00F900F900F900F90CF9117
:10161000DF910895DF93CF9300D000D0CDB7DEB730
:101620009A8389837C836B835E834D8380910004DE
:10163000909101040097D1F7898180931A0383E088
:1016400080931C038B8180931D038D8180931E03E7
:1016500084E080931B030E94BC0926960FB6F89481
:10166000DEBF0FBECDBFCF91DF910895DF93CF9343
:1016700000D00F92CDB7DEB79A8389837C836B83CA
:1016800080910004909101040097D1F789818093A3
:101690001A0382E080931C038B8180931D0382E0F8
:1016A00080931E0384E080931B030E94BC098091F9
:1016B000BD03482F50E08091BE03282F30E0CA01BF
:1016C000B9010E94670A0F900F900F900F90CF9171
:1016D000DF910895DF93CF9300D000D0CDB7DEB770
:1016E0009A8389837C836B835E834D83809100041E
:1016F000909101040097D1F7898180931A0383E0C8
:1017000080931C038B8180931D038D819E810E9499
:101710008E0A80931E038D819E810E94A40A80936D
:101720001F0385E080931B030E94BC0926960FB619
:10173000F894DEBF0FBECDBFCF91DF910895DF9348
:10174000CF93CDB7DEB7E1E2F0E08CEF8083E2E249
:10175000F0E08CEF8083EAE7F0E086E08083CF91D1
:10176000DF910895DF93CF93CDB7DEB76C970FB6B7
:10177000F894DEBF0FBECDBF9A8F898FEAE7F0E005
:1017800080E88083ECE7F0E0898D8083898D9A8DF5
:101790009C8F8B8F8B8D9C8D8330910581F18B8DF0
:1017A0009C8D843091055CF48B8D9C8D81309105EE
:1017B000B1F08B8D9C8D82309105C9F03FC08B8D2F
:1017C0009C8D8530910559F18B8D9C8D85309105CF
:1017D000F4F08B8D9C8D8630910549F12FC0A2E2EB
:1017E000B0E0E2E2F0E080818F778C9327C0A2E244
:1017F000B0E0E2E2F0E080818F7B8C931FC0A2E238
:10180000B0E0E2E2F0E080818F7D8C9317C0A2E22D
:10181000B0E0E2E2F0E080818F7E8C930FC0A2E224
:10182000B0E0E2E2F0E08081877F8C9307C0A2E223
:10183000B0E0E2E2F0E080818B7F8C9380E090E08A
:10184000A0E4B1E48D8B9E8BAF8BB88F6D897E89C0
:101850008F89988D2BEA3AEA4AEA5EE30E944214A5
:10186000DC01CB01898B9A8BAB8BBC8B69897A8924
:101870008B899C8920E030E040E85FE30E944816B5
:1018800088231CF481E0888B91C069897A898B89CF
:101890009C8920E030E04FE753E40E94E8151816D9
:1018A0000CF07BC06D897E898F89988D20E030E0B7
:1018B0004AE754E40E943C15DC01CB018C879D87EC
:1018C000AE87BF876C857D858E859F8520E030E063
:1018D0004AE753E40E944214DC01CB0188879987D0
:1018E000AA87BB87688579858A859B8520E030E05B
:1018F00040E85FE30E94481688232CF481E090E0E2
:101900009F838E833FC0688579858A859B8520E08B
:101910003FEF4FE757E40E94E81518164CF56C8529
:101920007D858E859F8520E030E040E251E40E9475
:101930004214DC01CB01BC01CD010E946C12DC0120
:10194000CB019F838E830FC089E190E09D838C83C0
:101950008C819D810197F1F79D838C838E819F817E
:1019600001979F838E838E819F81009769F724C0A2
:10197000688579858A859B850E946C12DC01CB0184
:101980009F838E838E819F819B838A838A819B81A3
:101990000197F1F79B838A830FC069897A898B89C4
:1019A0009C890E946C12DC01CB01888B8889898319
:1019B00089818A95F1F78983AAE7B0E0EAE7F0E048
:1019C000808180618C93AAE7B0E0EAE7F0E0808153
:1019D00080648C93EAE7F0E08081882F90E080714A
:1019E00090700097B9F3E2E2F0E08CEF8083EAE7D1
:1019F000F0E01082E8E7F0E0808191816C960FB60C
:101A0000F894DEBF0FBECDBFCF91DF910895DF9375
:101A1000CF93CDB7DEB728970FB6F894DEBF0FBED1
:101A2000CDBF9C838B834D835E836F837887E0EC8F
:101A3000F0E082E48083E1ECF0E088E98083E2EC8E
:101A4000F0E086E0808360E074E284EF99E42D8129
:101A50003E814F8158850E943C15DC01CB01BC01C1
:101A6000CD010E946C12DC01CB0101979A8389831E
:101A7000E5ECF0E089819A81892F99278083E4EC55
:101A8000F0E08981808360E074E284E799E42D814D
:101A90003E814F8158850E943C15DC01CB01BC0181
:101AA000CD0120E030E040E451E40E944214DC012A
:101AB000CB0180938A0590938B05A0938C05B093FE
:101AC0008D0520918A0530918B0540918C055091B0
:101AD0008D0560E070E08AE793E40E943C15DC012C
:101AE000CB01BC01CD010E946C12DC01CB019093B3
:101AF000890580938805AEE2B0E0EEE2F0E08081F7
:101B00008B7F8C93AEE2B0E0EEE2F0E08081886003
:101B10008C93E6ECF0E08FEF808310920205109238
:101B2000030581E090E028960FB6F894DEBF0FBE63
:101B3000CDBFCF91DF910895DF93CF93CDB7DEB7BF
:101B4000CF91DF910895DF93CF93CDB7DEB780912A
:101B5000030580930205CF91DF910895DF93CF9322
:101B600000D000D0CDB7DEB79C838B837E836D839E
:101B7000F894AEE2B0E0EEE2F0E08081877F8C93F3
:101B8000AEE2B0E0EEE2F0E0808184608C931A82F5
:101B9000198220C0E0ECF0E08081882F90E0807214
:101BA00090700097B9F3A0ECB0E0E0ECF0E0808139
:101BB00080648C93A6ECB0E029813A818B819C8172
:101BC000FC01E20FF31F80818C9389819A81019639
:101BD0009A83898329813A818D819E8128173907CB
:101BE000CCF2E0ECF0E08081882F90E0807490707F
:101BF0000097B9F3AEE2B0E0EEE2F0E080818B7FD7
:101C00008C93AEE2B0E0EEE2F0E0808188608C93ED
:101C1000789489819A8126960FB6F894DEBF0FBE1C
:101C2000CDBFCF91DF9108950F931F93DF93CF9393
:101C3000CDB7DEB72A970FB6F894DEBF0FBECDBF83
:101C40009E838D8378876F83909102058091030531
:101C5000981719F41A8619862DC00E94770F9A8357
:101C6000898329813A818F8198858217930724F48B
:101C70008F8198859A8389831C821B8210C02B8157
:101C80003C818D819E818C01020F131F0E94D60F13
:101C9000F80180838B819C8101969C838B832B81AF
:101CA0003C8189819A81281739074CF389819A816F
:101CB0009A87898789859A852A960FB6F894DEBF18
:101CC0000FBECDBFCF91DF911F910F910895DF938C
:101CD000CF930F920F92CDB7DEB79A83898310927C
:101CE00091051092900529813A8180918805909103
:101CF0008905820F931F0A9690938F0580938E0516
:101D00000F900F90CF91DF910895DF93CF93CDB7D0
:101D1000DEB76A970FB6F894DEBF0FBECDBF8091D5
:101D2000900590919105019690939105809390056F
:101D3000209190053091910580918E0590918F05AD
:101D40008217930728F481E090E09A8F898FC4C0AE
:101D500080918A0590918B05A0918C05B0918D059D
:101D60008D8B9E8BAF8BB88F6D897E898F89988D77
:101D70002BEA3AEA4AEA5EE30E944214DC01CB0114
:101D8000898B9A8BAB8BBC8B69897A898B899C896F
:101D900020E030E040E85FE30E94481688231CF40E
:101DA00081E0888B91C069897A898B899C8920E040
:101DB00030E04FE753E40E94E81518160CF07BC0A2
:101DC0006D897E898F89988D20E030E04AE754E460
:101DD0000E943C15DC01CB018C879D87AE87BF87B5
:101DE0006C857D858E859F8520E030E04AE753E451
:101DF0000E944214DC01CB0188879987AA87BB87A0
:101E0000688579858A859B8520E030E040E85FE33E
:101E10000E94481688232CF481E090E09F838E83F3
:101E20003FC0688579858A859B8520E03FEF4FE735
:101E300057E40E94E81518164CF56C857D858E8553
:101E40009F8520E030E040E251E40E944214DC0132
:101E5000CB01BC01CD010E946C12DC01CB019F8340
:101E60008E830FC089E190E09D838C838C819D815E
:101E70000197F1F79D838C838E819F8101979F83CA
:101E80008E838E819F81009769F724C0688579854C
:101E90008A859B850E946C12DC01CB019F838E8317
:101EA0008E819F819B838A838A819B810197F1F731
:101EB0009B838A830FC069897A898B899C890E9458
:101EC0006C12DC01CB01888B8889898389818A9592
:101ED000F1F789831A8E198E898D9A8D6A960FB6BD
:101EE000F894DEBF0FBECDBFCF91DF910895DF9391
:101EF000CF930F920F92CDB7DEB7909102058091EC
:101F00000305981719F41A82198225C090910205C9
:101F100080910305981778F480910305282F30E00D
:101F200080910205882F90E0A901481B590BCA0136
:101F30009A83898310C080910305282F30E0809117
:101F40000205882F90E0A901481B590BCA01805057
:101F50009F4F9A83898389819A810F900F90CF91A7
:101F6000DF910895DF93CF930F92CDB7DEB78983CA
:101F70000E94770F8F3F9105A9F080910305882F6C
:101F800090E0FC01EE5FFB4F898180838091030527
:101F90008F3F19F41092030505C0809103058F5FF0
:101FA000809303050F90CF91DF910895DF93CF9336
:101FB0000F920F92CDB7DEB7909102058091030585
:101FC000981719F48FEF8A8317C080910205882F24
:101FD00090E0FC01EE5FFB4F8081898380910205D8
:101FE0008F3F19F41092020505C0809102058F5FA2
:101FF0008093020589818A838A810F900F90CF9107
:10200000DF9108951F920F920FB60F9200905B0020
:102010000F9211242F933F934F935F936F937F936E
:102020008F939F93AF93BF93EF93FF93DF93CF93E0
:10203000CDB7DEB7E6ECF0E080810E94B20FCF9121
:10204000DF91FF91EF91BF91AF919F918F917F9120
:102050006F915F914F913F912F910F9000925B0094
:102060000F900FBE0F901F901895DF93CF93CDB7B1
:10207000DEB7E1E8F0E084E08083E8E8F0E081E7C3
:1020800092E091838083EFE6F0E082E08083E4E8F1
:10209000F0E011821082CF91DF910895DF93CF930A
:1020A000CDB7DEB7E1E9F0E083E08083E8E9F0E076
:1020B00088EA91E691838083E4E9F0E0118210825E
:1020C000CF91DF910895DF93CF93CDB7DEB7E1E9EC
:1020D000F0E084E08083E8E9F0E084E294EF91832B
:1020E0008083E4E9F0E011821082CF91DF910895BE
:1020F000DF93CF930F920F92CDB7DEB79A83898388
:1021000089819A810F900F90CF91DF910895DF938D
:10211000CF9300D000D0CDB7DEB76B837C838D83A7
:102120009E836B817C818D819E810E9478169B01AC
:10213000AC0160E074E284EF99E40E943C15DC019C
:10214000CB01BC01CD010E946C12DC01CB010197D7
:102150009A838983E8ECF0E082E48083E9ECF0E0A4
:1021600088E98083EAECF0E086E08083EEECF0E042
:102170008FEF80831092840510928505EDECF0E0DE
:1021800089819A81892F990F990B8083ECECF0E07B
:1021900089818083AEE2B0E0EEE2F0E080818B7F67
:1021A0008C93AEE2B0E0EEE2F0E0808188608C9348
:1021B0008FE292E123E532E1B9010E945619909332
:1021C00087058093860526960FB6F894DEBF0FBE6E
:1021D000CDBFCF91DF910895DF93CF9300D000D092
:1021E000CDB7DEB79C838B837E836D831A82198281
:1021F00019C0E8ECF0E08081882F90E08072907048
:102200000097B9F3AEECB0E029813A818B819C81D3
:10221000FC01E20FF31F80818C9389819A810196E2
:102220009A83898329813A818D819E812817390774
:1022300004F326960FB6F894DEBF0FBECDBFCF9144
:10224000DF9108950F931F93DF93CF93CDB7DEB740
:1022500029970FB6F894DEBF0FBECDBF9E838D8346
:1022600078876F839091840580918505981711F484
:1022700019862BC00E9471119A83898329813A8122
:102280008F8198858217930724F48F8198859A838C
:1022900089831C821B8210C02B813C818D819E8191
:1022A0008C01020F131F0E94D011F80180838B81D3
:1022B0009C8101969C838B832B813C8189819A81AF
:1022C000281739074CF3F981F987898529960FB6C4
:1022D000F894DEBF0FBECDBFCF91DF911F910F915C
:1022E0000895DF93CF930F920F92CDB7DEB7909101
:1022F000840580918505981719F41A82198225C0E2
:102300009091840580918505981778F480918505D2
:10231000282F30E080918405882F90E0A901481B88
:10232000590BCA019A83898310C080918505282F93
:1023300030E080918405882F90E0A901481B590B5B
:10234000CA0180589F4F9A83898389819A810F900F
:102350000F90CF91DF910895DF93CF930F92CDB778
:10236000DEB789830E9471118F379105A9F08091A2
:102370008505882F90E0FC01EC5FFA4F898180830E
:10238000809185058F3719F41092850505C08091DD
:1023900085058F5F809385050F90CF91DF9108951C
:1023A000DF93CF930F920F92CDB7DEB79091840554
:1023B00080918505981719F48FEF8A8317C0809153
:1023C0008405882F90E0FC01EC5FFA4F80818983BF
:1023D000809184058F3719F41092840505C080918F
:1023E00084058F5F8093840589818A838A810F9019
:1023F0000F90CF91DF9108951F920F920FB60F9219
:1024000000905B000F9211242F933F934F935F93A3
:102410006F937F938F939F93AF93BF93EF93FF93AC
:10242000DF93CF93CDB7DEB7EEECF0E080810E9472
:10243000AC11CF91DF91FF91EF91BF91AF919F913F
:102440008F917F916F915F914F913F912F910F905D
:1024500000925B000F900FBE0F901F901895DF93B6
:10246000CF9300D0CDB7DEB78B838B818A3059F400
:102470008DE089838AE08A83CE01019662E070E074
:102480000E94EC1008C08B818983CE01019661E027
:1024900070E00E94EC1080E090E00F900F900F90A1
:1024A000CF91DF910895DF93CF930F92CDB7DEB731
:1024B0000E9471110097E1F30E94D01189838981F4
:1024C0008D3011F48AE089838981992787FD909561
:1024D0000F90CF91DF910895EF92FF920F931F938A
:1024E0007B018C0120E030E040E05FE40E941816A0
:1024F00088238CF0C801B70120E030E040E05FE4C1
:102500000E94E4130E94D6169B01AC01205030407B
:102510004040504806C0C801B7010E94D6169B0132
:10252000AC01B901CA011F910F91FF90EF9008957E
:10253000A0E0B0E0EEE9F2E10C941F19DC012B0100
:10254000FA019C91923008F439C1EB018881823004
:1025500008F433C1943069F4843009F02FC1119626
:102560009C9111978981981709F428C1A4E0B2E0E1
:1025700025C1843009F421C18230A9F4923009F0D8
:102580001DC19A01AD0188E0EA010990AE01E9019F
:1025900009929E018150C1F7E201898111969C91B7
:1025A0008923818308C1923009F407C112962D90C6
:1025B0003C901397EB018A819B811496AD90BD905E
:1025C000CD90DC901797EC80FD800E811F819101EA
:1025D000281B390BB90137FF04C066277727621B18
:1025E000730B603271050CF061C0121613066CF5A6
:1025F00037014801062E04C0969487947794679417
:102600000A94D2F721E030E040E050E004C0220F0D
:10261000331F441F551F6A95D2F721503040404068
:1026200050402E213F2140235123211531054105E2
:10263000510521F021E030E040E050E079018A01CD
:10264000E628F728082919293CC0232BD1F1260EAA
:10265000371E35014601062E04C096948794779460
:1026600067940A94D2F721E030E040E050E004C0E3
:10267000220F331F441F551F6A95D2F72150304057
:10268000404050402A213B214C215D21211531053C
:102690004105510521F021E030E040E050E05901D2
:1026A0006A01A628B728C828D9280BC08215930527
:1026B0002CF01C01AA24BB24650103C0EE24FF24D6
:1026C000870111969C91D20111968C91981709F46B
:1026D00045C0992339F0A80197012A193B094C09F3
:1026E0005D0906C0A60195012E193F09400B510B4B
:1026F00057FD08C0118233822282248335834683AA
:1027000057831DC081E081833382228288279927E5
:10271000DC01821B930BA40BB50B84839583A683EA
:10272000B7830DC0220F331F441F551F24833583E9
:102730004683578382819381019793838283248187
:10274000358146815781DA01C9010197A109B10993
:102750008F5F9F4FAF4FBF4328F30BC091833382EE
:102760002282EA0CFB1C0C1D1D1DE482F5820683EF
:10277000178383E08083248135814681578157FF09
:102780001AC0C901AA2797FDA095BA2F8170907031
:10279000A070B0705695479537952795822B932B4F
:1027A000A42BB52B84839583A683B78382819381E1
:1027B000019693838283DF0101C0D201CD01CDB7A1
:1027C000DEB7E2E10C943B19A0E2B0E0EAEEF3E1FF
:1027D0000C942B1969837A838B839C832D833E838E
:1027E0004F835887E9E0EE2EF12CEC0EFD1ECE0152
:1027F0000196B7010E944E188E010F5E1F4FCE0149
:102800000596B8010E944E188A8991E089278A8B23
:10281000C701B801AE01475E5F4F0E9498120E9447
:102820007917A096E6E00C944719A0E2B0E0EBE13E
:10283000F4E10C942B1969837A838B839C832D8319
:102840003E834F835887F9E0EF2EF12CEC0EFD1EEE
:10285000CE010196B7010E944E188E010F5E1F4FE8
:10286000CE010596B8010E944E18C701B801AE010D
:10287000475E5F4F0E9498120E947917A096E6E08B
:102880000C944719A0E2B0E0E8E4F4E10C941F19BD
:1028900069837A838B839C832D833E834F83588700
:1028A000CE010196BE01675F7F4F0E944E18CE0198
:1028B0000596BE016F5E7F4F0E944E18998592303B
:1028C00088F089898230C8F0943019F4823051F44C
:1028D00004C0843029F4923081F484E092E0C6C0D0
:1028E000923049F420E09A858A89981321E02A875A
:1028F000CE010996BBC0823049F420E09A858A89CE
:10290000981321E02A8BCE014196B0C02D843E84DD
:102910004F8458886D887E888F88988CEE24FF2499
:102920008701AA24BB24650140E050E060E070E02C
:10293000E0E0F0E0C10181709070892BE9F0E60CD5
:10294000F71C081D191D9A01AB012A0D3B1D4C1DDA
:102950005D1D80E090E0A0E0B0E0E614F70408051B
:10296000190520F481E090E0A0E0B0E0BA01A901EF
:10297000480F591F6A1F7B1FAA0CBB1CCC1CDD1CF7
:1029800097FE08C081E090E0A0E0B0E0A82AB92A54
:10299000CA2ADB2A3196E032F10549F0660C771C31
:1029A000881C991C5694479437942794C3CFFA8572
:1029B000EA892B893C898B859C85280F391F2E5FDE
:1029C0003F4F17C0CA0181709070892B61F0169536
:1029D0000795F794E79480E090E0A0E0B0E8E82A5B
:1029E000F92A0A2B1B2B76956795579547952F5FEC
:1029F0003F4F77FDE7CF0CC0440F551F661F771F71
:102A000017FD4160EE0CFF1C001F111F21503040CC
:102A1000403090E0590790E0690790E4790760F34F
:102A20002B8F3C8FDB01CA018F779070A070B07044
:102A300080349105A105B10561F447FD0AC0E11498
:102A4000F1040105110529F0405C5F4F6F4F7F4F86
:102A500040781A8EFE1711F081E08A8F4D8F5E8FBD
:102A60006F8F78A383E0898FCE0149960E947917F2
:102A7000A096E2E10C943B19A8E1B0E0E2E4F5E1B4
:102A80000C94271969837A838B839C832D833E83DF
:102A90004F835887B9E0EB2EF12CEC0EFD1ECE01D2
:102AA0000196B7010E944E188E010F5E1F4FCE0196
:102AB0000596B8010E944E182985223008F47EC080
:102AC0003989323010F4B8017CC08A859A89892707
:102AD0008A87243011F0223031F4231709F06EC0B8
:102AE00064E072E06EC0343039F41D861E861F86A5
:102AF000188A1C861B8604C0323021F484E0898742
:102B0000B7015FC02B853C858B899C89281B390BBD
:102B10003C872B87ED84FE840F851889AD88BE889D
:102B2000CF88D88CEA14FB040C051D0540F4EE0C8C
:102B3000FF1C001F111F215030403C872B8720E0D5
:102B400030E040E050E080E090E0A0E0B0E460E001
:102B500070E0EA14FB040C051D0540F0282B392B0E
:102B60004A2B5B2BEA18FB080C091D09B695A795A3
:102B700097958795EE0CFF1C001F111F6F5F7F4F0D
:102B80006F31710531F7DA01C9018F779070A0704C
:102B9000B07080349105A105B10561F427FD0AC02C
:102BA000E114F1040105110529F0205C3F4F4F4F5E
:102BB0005F4F20782D873E874F87588BBE01675F18
:102BC0007F4FCB010E9479176896EAE00C94431975
:102BD000A8E1B0E0EEEEF5E10C942B1969837A835D
:102BE0008B839C832D833E834F83588789E0E82E17
:102BF000F12CEC0EFD1ECE010196B7010E944E187D
:102C00008E010F5E1F4FCE010596B8010E944E182F
:102C10008985823040F08989823028F0C701B80167
:102C20000E94C61801C08FEF6896E6E00C94471921
:102C3000A8E1B0E0EEE1F6E10C942B1969837A8308
:102C40008B839C832D833E834F83588789E0E82EB6
:102C5000F12CEC0EFD1ECE010196B7010E944E181C
:102C60008E010F5E1F4FCE010596B8010E944E18CF
:102C70008985823040F08989823028F0C701B80107
:102C80000E94C61801C08FEF6896E6E00C944719C1
:102C9000A8E1B0E0EEE4F6E10C942B1969837A83A5
:102CA0008B839C832D833E834F83588789E0E82E56
:102CB000F12CEC0EFD1ECE010196B7010E944E18BC
:102CC0008E010F5E1F4FCE010596B8010E944E186F
:102CD0008985823040F08989823028F0C701B801A7
:102CE0000E94C61801C081E06896E6E00C9447197E
:102CF000A8E0B0E0EEE7F6E10C9428199B01AC01E6
:102D000083E08983DA01C9018827B7FD8395992774
:102D1000AA27BB27B82E211531054105510519F405
:102D200082E089833AC08823A9F0203080E0380708
:102D300080E0480780E8580729F460E070E080E010
:102D40009FEC30C0EE24FF248701E21AF30A040B43
:102D5000150B02C079018A018EE1C82ED12CDC82CC
:102D6000CB82ED82FE820F831887C801B7010E94D3
:102D70002A1701971816190684F4082E04C0EE0CC1
:102D8000FF1C001F111F0A94D2F7ED82FE820F83F1
:102D90001887C81AD90ADC82CB82BA82CE01019682
:102DA0000E9479172896E9E00C944419ACE0B0E051
:102DB000ECEDF6E10C942F1969837A838B839C8365
:102DC000CE010196BE016B5F7F4F0E944E188D8130
:102DD000823061F1823050F1843021F48E81882379
:102DE00051F12EC02F81388537FD20C06E812F31E3
:102DF00031051CF06623F9F023C08EE190E0821BC0
:102E0000930B29853A854B855C8504C0569547957B
:102E1000379527958A95D2F76623B1F0509540955E
:102E2000309521953F4F4F4F5F4F0EC020E030E06F
:102E300040E050E009C02FEF3FEF4FEF5FE704C0E5
:102E400020E030E040E050E8B901CA012C96E2E011
:102E50000C944B19EF92FF920F931F937B018C01FF
:102E600080E0E81680E0F80681E0080780E01807B7
:102E700088F48FEFE816F1040105110531F028F010
:102E800088E090E0A0E0B0E017C080E090E0A0E033
:102E9000B0E012C080E0E81680E0F80680E00807A5
:102EA00081E0180728F088E190E0A0E0B0E004C0DD
:102EB00080E190E0A0E0B0E020E230E040E050E0CF
:102EC000281B390B4A0B5B0B04C016950795F7942A
:102ED000E7948A95D2F7F701E45FFD4F8081281BC4
:102EE000310941095109C9011F910F91FF90EF90DC
:102EF0000895DF92EF92FF920F931F93FC01E480FD
:102F0000F58006811781D1808081823048F480E08D
:102F100090E0A0E1B0E0E82AF92A0A2B1B2BA5C01B
:102F2000843009F49FC0823021F4EE24FF2487010D
:102F300005C0E114F1040105110519F4E0E0F0E029
:102F400096C0628173819FEF623879070CF05BC095
:102F500022E83FEF261B370B2A3131052CF020E009
:102F600030E040E050E02AC0B801A701022E04C0C2
:102F700076956795579547950A94D2F781E090E04A
:102F8000A0E0B0E004C0880F991FAA1FBB1F2A95BC
:102F9000D2F70197A109B1098E219F21A023B12366
:102FA0000097A105B10521F081E090E0A0E0B0E03C
:102FB0009A01AB01282B392B4A2B5B2BDA01C90173
:102FC0008F779070A070B07080349105A105B10525
:102FD00039F427FF09C0205C3F4F4F4F5F4F04C0BB
:102FE000215C3F4F4F4F5F4FE0E0F0E02030A0E02A
:102FF0003A07A0E04A07A0E45A0710F0E1E0F0E049
:1030000079018A0127C06038710564F5FB01E15838
:10301000FF4FD801C7018F779070A070B0708034D7
:103020009105A105B10539F4E7FE0DC080E490E0FB
:10303000A0E0B0E004C08FE390E0A0E0B0E0E80ED4
:10304000F91E0A1F1B1F17FF05C016950795F79459
:10305000E794319687E016950795F794E7948A955B
:10306000D1F705C0EE24FF248701EFEFF0E06E2FCB
:10307000679566276795902F9F77D794DD24D7941F
:103080008E2F8695492F462B582F5D29B701CA01EF
:103090001F910F91FF90EF90DF900895FC01DB01ED
:1030A000408151812281622F6F7770E0221F222799
:1030B000221F9381892F880F822B282F30E0991FA0
:1030C0009927991F11969C93119721153105A9F500
:1030D000411551056105710511F482E037C082E8A0
:1030E0009FEF13969C938E9312979A01AB0167E022
:1030F000220F331F441F551F6A95D1F783E08C932D
:103100000DC0220F331F441F551F12968D919C91A5
:103110001397019713969C938E931297203080E01B
:10312000380780E0480780E4580758F314962D9339
:103130003D934D935C93179708952F3F310579F494
:10314000411551056105710519F484E08C930895CA
:1031500064FF03C081E08C9312C01C9210C02F57F3
:10316000304013963C932E93129783E08C9387E024
:10317000440F551F661F771F8A95D1F77064149608
:103180004D935D936D937C93179708951F93DC0186
:10319000FB019C91923008F447C08081823008F492
:1031A00043C0943051F411961C91843099F581817B
:1031B000682F70E0611B71093FC0843021F09230AC
:1031C00031F48230B9F18181882389F12DC01196C3
:1031D0001C9111978230F1F081811817D9F4129661
:1031E0002D913C911397828193818217930794F0DC
:1031F00028173907BCF014968D919D910D90BC91C4
:10320000A02D2481358146815781281739074A0727
:103210005B0718F4112341F00AC082179307A40733
:10322000B50740F4112319F061E070E005C06FEFBD
:103230007FEF02C060E070E0CB011F9108952F92F4
:103240003F924F925F926F927F928F929F92AF9236
:10325000BF92CF92DF92EF92FF920F931F93CF9383
:10326000DF93CDB7DEB7CA1BDB0B0FB6F894DEBF1A
:103270000FBECDBF19942A88398848885F846E8430
:103280007D848C849B84AA84B984C884DF80EE808A
:10329000FD800C811B81AA81B981CE0FD11D0FB693
:1032A000F894DEBF0FBECDBFED0108950F931F93BD
:1032B000CF93DF938C01EB01009731F46115710519
:1032C00019F420E030E038C081E090E06EE070E07A
:1032D0000E94A219FC019C01009771F180E8838390
:1032E000209771F0D387C28781E88383809192050C
:1032F00090919305892B21F4F0939305E093920527
:1033000001151105C9F011870087838182608383CD
:103310008091940590919505892B71F4F093950512
:10332000E09394058091960590919705892B21F45F
:10333000F0939705E0939605C901DF91CF911F9116
:103340000F9108950F931F93CF93DF93689F800190
:10335000699F100D789F100D1124C8010E94BE199D
:10336000EC01009729F060E070E0A8010E94C31A08
:10337000CE01DF91CF911F910F910895CF93DF93ED
:10338000BC018230910510F462E070E0A0919A05D2
:10339000B0919B05ED01E0E0F0E040E050E021C09D
:1033A000888199818617970769F48A819B81309774
:1033B00019F09383828304C090939B0580939A05B0
:1033C000FE0134C06817790738F44115510519F02A
:1033D0008417950708F4AC01FE018A819B819C014A
:1033E000E9012097E9F641155105A9F1CA01861BAB
:1033F000970B049708F4BA01E0E0F0E02AC08D9141
:103400009C91119784179507F9F46417750781F457
:1034100012968D919C911397309719F09383828324
:1034200004C090939B0580939A05FD0132964FC08E
:10343000CA01861B970BFD01E80FF91F6193719379
:1034400002978D939C9343C0FD01828193819C01DF
:10345000D9011097A1F68091980590919905892B33
:1034600041F480910E0390910F03909399058093FE
:10347000980540911003509111034115510541F4F5
:103480004DB75EB780910C0390910D03481B590B0B
:10349000209198053091990524173507B0F4CA0199
:1034A000821B930B8617970780F0AB014E5F5F4F2F
:1034B0008417950750F0420F531F5093990540937E
:1034C0009805F9016193719302C0E0E0F0E0CF014B
:1034D000DF91CF910895CF93DF93009709F450C007
:1034E000EC0122971B821A82A0919A05B0919B054C
:1034F000109709F140E050E0AC17BD0708F1BB831D
:10350000AA83FE0121913191E20FF31FAE17BF078D
:1035100079F48D919C911197280F391F2E5F3F4FA1
:103520003983288312968D919C9113979B838A836C
:103530004115510571F4D0939B05C0939A0520C0A5
:1035400012968D919C911397AD01009711F0DC01BB
:10355000D3CFFA01D383C28321913191E20FF31FBC
:10356000CE17DF0769F488819981280F391F2E5FF4
:103570003F4FFA01318320838A819B819383828329
:10358000DF91CF910895DC0101C06D93415050400F
:08359000E0F70895F894FFCF65
:10359800010001000000000000000000000102021C
:1035A80003030303040404040404040405050505D3
:1035B80005050505050505050505050506060606AF
:1035C8000606060606060606060606060606060693
:1035D800060606060606060606060606070707077F
:1035E8000707070707070707070707070707070763
:1035F8000707070707070707070707070707070753
:103608000707070707070707070707070707070742
:10361800070707070707070707070707080808082E
:103628000808080808080808080808080808080812
:103638000808080808080808080808080808080802
:1036480008080808080808080808080808080808F2
:1036580008080808080808080808080808080808E2
:1036680008080808080808080808080808080808D2
:1036780008080808080808080808080808080808C2
:1036880008080808080808080808080808080808B2
:1036980008080808080808080808080820009C0501
:0236A800000020
:00000001FF
